:020000020000FC
:2000000034044000140840083A68000800000000000000000000000000000000000000005A
:200020003408C0061400C4DE3408800614BEA1D63408800014D081103408C0001448C2189A
:200040002603C010150000100401801036FDFF10C0030201000C020106FF3F0004FDFFDEB4
:20006000150140DC150000DC3A8823283A882120440140013A8809301502C0DFC0D3010181
:200080003A880B103A88098800C80101C4FFBF100402C08035000018440000013504008142
:2000A000CC3F0011350000813AD20410CC3F80103501808004208000350080181702C0DF54
:2000C000170140DC170000DC0403C0DE3A2800F84C0080313A884B293A888B2935034021B8
:2000E000040400210424800035008020370080208C0080101EFD3F1037008020FAD1041047
:200100004C0080103A2800F80404C02026020028041A800006010000040880003500801873
:20012000370080188C0080101EFD3F10370380203A2800F8CC3F4029350340210404002100
:200140002602003004148000060100000404800035008020370080208C0080101EFD3F10EE
:2001600037008020FAD104104C0080103A2800F804FEFFDE150000DC170420D4CC3F402148
:20018000040E00011501C0DF00C801018300C080CC3F80102E05C0101705A0D00401C0001B
:2001A0004500C01044008000060100003A8805001701C0DF170000DC0402C0DE3A2800F8F0
:2001C000CC3F4029BAD00A28340880013A88050004398831CC3FC010260540193700C030EF
:2001E0001500C020440080100401002106F93F003A2800F834088000CC3F002104308810C4
:20020000350000113A2800F804FCFFDE150000DC3408000404200884150280DC0412800473
:200220003A880B903A8809803A880D001503C0DF150140DC000D0001440040043A880B8873
:200240003A8809803A880D00401300013A880D883A88098004014001401300013A880B9097
:200260003A8809803A880D00000D00013A8809803A880D0084004001401300013A880980D8
:200280003A880D00C4084001401300013A880D883A8809803A880B00401300013A880B900E
:2002A0003A8809803A880D00000D00013A8809803A880D00C4004001401300013A88098058
:2002C0003A880D00440B4001401300013A880D883A880B003A8809801703C0DF170280DCCE
:2002E000170140DC170000DC0404C0DE4113000104FCFFDE150000DC34080004042008841E
:20030000150280DC041480043A880B903A8809803A880D001503C0DF150140DC000D000160
:200320003A8809803A880D003A880B00401300013A8809803A880D003A880B004400400413
:20034000401300013A880D883A880B903A880980000D00013A880B883A880980801000010B
:200360003A880B903A8809803A880D00000D00013A8809803A880D003A880B0040130001BD
:200380003A880B883A8809803A880D00401300013A880D883A8809808416400140130001C9
:2003A0003A880B903A8809803A880D00000D00013A8809803A880D003A880B00401300017D
:2003C0003A880B883A8809803A880D00401300013A880B903A8809803A880D88000D00014D
:2003E0003A880B883A8809801703C0DF170280DC170140DC170000DC0404C0DE81100001D0
:2004000004FAFFDE1505C0DFCC3F00211E0F002034080001C4008000150200D8150100D871
:20042000150000D80404C0D9C40080013A880B0004080821050480D8450400D8850400D804
:20044000001D0201150380D8060F00000B00802834080001150200D83AD20610150100D808
:20046000150000D80403C0D9C40080013A880B0004080821050300D84503C0D8850380D808
:20048000001D0201150480D81705C0DF0406C0DE3A2800F804F6FFDE1509C0DF150840DC41
:2004A000150700DCCC3F00211E230020C407C00044E0BF000503C0D8450380D8C503C0D8A9
:2004C000050480D804FDFF0084FCBF00C4FC3F01450480D80505C0D84400800004E0FF0092
:2004E000850300D9850400D8C50480D8450580D88505C0D8C50580D83A8821000403400405
:20050000040380D8340800013A880F14150200D8150100D8150000D8C40080018400400186
:2005200004100821001D0201150680D8C40000841EF37F84060A0000340800013A880F2849
:20054000150200D8150100D8150000D8C40080018400400104100821001D0201150380D8FA
:200560001709C0DF170840DC170700DC040AC0DE3A2800F83408800004298810C400C0007C
:200580003500C01034080001042B0821440080003700C02026FEBF1834088000042888106B
:2005A0004400C0003500C0103A2800F804FCFFDE150000DC3408000404200884150140DCE8
:2005C00004144004150280DC3A880B883A8825203A880D003A8809801503C0DF000D000111
:2005E0003A8809803A880D003A880B0040130001CC3F40913A8809803A880D004013000176
:20060000440080043A880D903A880B883A880980000D00013A8809803A880B00801000015C
:200620003A880B903A8809803A88231080100001CC3F80103A920410CC3F408C3AB04414F8
:200640001703C0DF170280DC170140DC170000DC0404C0DE3A2800F804F2FFDE150400DC7D
:2006600034080004150DC0DF150C00DF150BC0DD150A80DD150940DD150800DD1507C0DC53
:20068000150680DC150540DC041808848401800035008080C401800035008080B40080011C
:2006A000747540013408000104A8A1310400702904200821C005000104040001C05A000181
:2006C000CCFF3F11D4FFFF001E01C02084FE9D00840360D1440000018D03A0D03408800452
:2006E000004000013400FE04802000013A880500043C8894C4FFFF9C3408C0000434C8184D
:200700002300401C4C00408CCC3F8010CC3FC0882602C0101E010018405700013408C00091
:20072000043AC81837008018150380D8170380D84C008010260200103A88058806EE3F0054
:20074000340800010410400104380221001C0001340800013A880B0004E8012104108001DE
:20076000C0EA0101170460D1452320D01705A0D00300C028C4008005C41400010500C010BB
:200780008300C0288500C010C300C02845008015C500C0100300C02826920219360EC0209D
:2007A00044080001264900193604C020261C001804080001262A001906EB0300040B000176
:2007C00026210319440C000126C90019840800011EE50319065D0000441800012659021957
:2007E0003605C02044150001267B0019841500012699001906DC03000423000126D7001935
:2008000044230001268D0119841800011ED60319051B20D04400000504144005060902002F
:20082000C401C0000502C0108405C0004502C0104400C0008502C010C50280150503C0106D
:200840004500C01034088001340800013A88050004E88131043808210410C00006C403001E
:20086000030280284400C0002610C010261200108400C0001E12C0108401800035008080FB
:200880003A8801003A8801003A8801003A8801003A8801003A8801003A8801003A88010040
:2008A0003A8801003A88010006030000840180003500808006200200C401800006FC3F00C1
:2008C000440080004523A0D0061B02000401000100170001CC3F80101EDA3F10051B20D049
:2008E00004E03F051704E0D1031BA0D08300C0382E11C2103A8885103A8885103A888738BB
:200900000402C01803000019040280103A888F383AB008250500001934080001150200D85D
:20092000150100D8150000D8040180013A880B0004100821001D0201150380D8031BA0D02E
:2009400044008010051BA0D006E63F000401000100170001CC3F80101EBA3F10051B20D018
:2009600084000005170420D1031BA0D01705A0D18300C0202E5BC0103A8885103A8887204B
:200980000402C018030040190402C0113A888510CC1F402984028010050040193A888530B0
:2009A0003A88CF2134080001150200D8150180D8150000DD840080013A880B0004100821EA
:2009C000001D0201150380D8031BA0D044008010051BA0D006E33F0004010001001700014F
:2009E000CC3F80101E973F10051B20D004E03F051704E0D1031BA0D08300C0382ECEC1107E
:200A00003A8885103A8885103A8887380402C01803000019040280103A888F383AB0082577
:200A20000500001934080001150200D8150100D8150000D804018001440040010410082149
:200A4000001D0201150380D8031BA0D044008010051BA0D006E63F000401000100170001CB
:200A6000CC3F80101E773F10051B20D084000005170420D1031BA0D01705A0D18300C020D4
:200A80002E18C0103A8885103A8887200402C018030040190402C0113A888510CC1F4029C4
:200AA00084028010050040193A8885303A88CF2134080001150200D8150180D8150000DD0D
:200AC000840080014400400104100821001D0201150380D8031BA0D044008010051BA0D0CD
:200AE00006E33F00440080004500803006553F00C400000100170001CC3F80101E513F1045
:200B00003A880B003A88090000400001051B20D0170460D1031BA0D08300C0282E0AC0109F
:200B20003A8887103A888518040280103A888B284400000140490001031BA0D044008010C1
:200B4000051BA0D006F23F004323E0D01705A0D0260303180402C00006393F004302C02877
:200B60004303002D3A9608188302C028451B20D53A9406183AB0C620030300293AB008195A
:200B8000C302C0283A9206183AB0C620830400291522E0D01EF00220C3040029C4008001F2
:200BA0001E3D80210302C0281EEB0218340800013A880D000414400104200821000D000169
:200BC0004523A0D01704A0D0340800013A880D0003044011042008213A88290040130001C2
:200BE0004323E0D0340800013A880D003A88C5104523A0D01704A0D00420082143044011F4
:200C0000401300014323E0D03A88C5104523A0D0431BE0D01704A0D0C4FFFF180E0DC0A00D
:200C20003A88051503084011340800013A880D0004200821401300014323E0D004E20401CE
:200C4000440000A53A88C5104523A0D00012020106EF3F003A882915030840A1440040057E
:200C6000340800013A880DA804200821401300014323E0D004E204013A88C5104523A0D0AF
:200C8000001202014323E0D01705A0D01EB202184500401506EB3E00440080011EAE8221B6
:200CA00003028029840000011EAB02311E040018151A20D0151920D0151720D0152420D049
:200CC0001719A0D5044080003AC885151518A0D00E158000CC3F00A50E0280A0151720D5CE
:200CE000060100001517A0D0171760D53408000104F801213A880DA8040840293A88892537
:200D00003A886BB540D60101151960D5044080001E0200A00E0140051519A0D01719E0D020
:200D20003AC8C5101518A0D01719A0D0C43FC0000E288018171AE0D13A70C4381E10001048
:200D40000E0100383A88CF383AD20F383408000144008001CC3FC0393A880B000400082130
:200D600080A80101CC3F8010260300104323A0D0440080104523A0D04323A0D01E0F0010E0
:200D800034088000171AA0D104F8811034080001150100D8150080D80440C0013A880B00FE
:200DA0000400082100910101CC3F8010260300104323A0D0440080104523A0D0171AA0D07C
:200DC000151920D044008010151AA0D0044080001518A0D0431BA0D5171720D50E0F80A5E9
:200DE0003AC82BB5170460D1171920D53408000104F801213A8809253A880DB00408402961
:200E0000151760D540D601013A8829AD04408000151920D53AC82915151820D51724A0D1CC
:200E20003440C0001705A0D03A888DB11524A0D1364982194323E0D0064602004302C0289D
:200E40003A9608188302C0283A9406183AB0C620030300293AB00819C302C0283A920618A8
:200E60003AB0C6201522E0D04303C028451BE0D08304C0281E380218C304C028C40000012A
:200E80001E3B00190302C0281E330218340800013A880D000414400104200821000D0001C8
:200EA0004523A0D01704A0D0340800013A880D0003044011042008213A88290040130001DF
:200EC0004323E0D0340800013A880D003A88C5104523A0D01704A0D0042008214304401111
:200EE000401300014323E0D034080001440080013A88C51004144001042008214523A0D071
:200F0000000D00014323E0D03A88C5104523A0D0431BA0D0170560D5C4FFBF100E0880A057
:200F2000340800013A880B00042008213A882BAD80100001050880A8440000A506F43F00D8
:200F400044008005340800013A880BB004200821801000014323E0D03A8829AD050880A055
:200F60001705A0D01EFC01184500801506353E00440000011EF8011983038028340800057B
:200F800004F801A53A960C10C3038028340800010440C0013A940410040008213AB0843066
:200FA000430480293AB08C1103048028150000DD3A880B003A9204103AB08C30151AA0D126
:200FC000007E0101CC3F8010260300104323A0D0440080104523A0D01705A0D0431B20D160
:200FE0003A880700040880100ED801193A880B1D030040294400C01844008010C5FF7F11F2
:2010000006F93F003A8887180302C0181E1200181705E0D03A8885103A8885103A88851833
:201020008B03E0D005020010450200103AD20818C502C01085020011031BA0D04400801047
:20104000051BA0D01704E0D0031BA0D08300001936EC3F11063800001E33001D34080001B0
:201060003A880D000412400104200821000D0001340800013A880DA03A880B000420082129
:20108000150380D840130001340800013A880DA00412400104200821150380D8000D0001BE
:2010A000340800013A880B0004200821150380D880100001CC3F00111C2000218402400198
:2010C00004E03F21C0D30101340800013A880BA0042008210D03A0D080100001150380D8BF
:2010E000170380D80C208010260300100B03A0D0440180100D03A0D0031BE0D0170420D1DC
:201100003A88C5183A88C720170520D10302C0183A8885103A8885200502C010450240156C
:201120000B03E0D006C13F004323A0D0440080104523A0D006C03F004400C0001705A0D0D4
:2011400006BF3D000401000100170001CC3F80101EBC3D10051B20D01704E0D0031BA0D044
:20116000830000192E7901113A8885103A8885103A8885180302C0101E130018430280101A
:201180001E1100103A880B003A88090040490001031BA0D01704E0D0840360D13A88851086
:2011A0003A8885103A8885188302C010C3028010440000013A9206183A8885188D03A0D041
:2011C00000400001060300004323A0D0440080104523A0D0031BA0D044008010051BA0D051
:2011E00006DD3F004302C028430380293A9608188302C028451BA0D13A9406183AB0C620C7
:20120000030300293AB00819C302C028030240293A9206183AB0C6201522E0D04400000193
:2012200026050029264C01288400C0001E84C028151220D1068200001E0200188402800013
:201240000520A0D0CC3F80311E020030840780000520A0D044008000C40200014400C001BD
:2012600034084001F4024005740180027402800534F8FD050513A0D00404C0023A88192049
:20128000043D4829040500023A880D38440140020405400304068003040DC0033404C00757
:2012A0008400000504986BAD0400A852C4FFAFB5C4FFFFBD0313A0D026623D100320A0D05F
:2012C00026120011360A80208402C0001E57C0101501A0D21500A0D51516A0D23500C02C8A
:2012E0003500C02D052020D10513A0D106070000261840138407C0001E4CC010C4FFBF0088
:2013000035008028052020D006440000370080903408C000CC048010043CC8181E03C012DB
:201320003500C02C052020D20513A0D137008018CC0480101E02C011052020D30513E0D1EB
:2013400037008018CC0480101EDA3F10052020D006D83F001515A0D31715A0D0362E807850
:20136000170420D73A88B9E00302C0E032C00718430280E02CC0FF1832C005103AD205107A
:20138000EC3F80103AB08618830280E032C005103AD405100CC0BF103AB08418C302C0E075
:2013A00032C007183AD60618170020D73AB084181716E0D01514A0D03611C0E03A88C71F55
:2013C000350080181716A0D0040180101516A0D0370080903408C000CC028010043CC818B2
:2013E00026FB3F1537008018CC0280101E020010052020D0151660D53700801806020000CF
:201400001705A0D0450040121715A0D0040180101515A0D006D03F00052020D21705A0D026
:20142000051320D04500801106A23F001705A0D0052020D0051320D045004012069D3F00C5
:201440004500001106FF3C004302C0281522E0D026050018172120D1C4FFFF182643001919
:201460008401C00006F63C00C41D20D5340800018400400504E0FF05150200D8150100D84E
:20148000150000D83A880FA0040180013A880B0004100821051E60D5C51DE0D5451E20D01C
:2014A000851E20D0001D0201150380D81704A0D0051E60D5C51DE0D503028010451E20D0A7
:2014C0008400400526054015C400C000260FC0104400C0001E25C010440080003408000122
:2014E000150200D8150100D8150000D83A880FA0040180013A880B0004100821851EA0D00E
:20150000001D0201150380D806180000340800013A880FA0040180013A880B0004100821DF
:20152000150200D8150100D8150000D8851EA0D0001D020134080001150200D8150100DD8F
:20154000150040DD3A880FA03A880DA83A880B0004100821150380D8C51D20D0051EA0D58D
:20156000001D0201150380D806780000851D20D044070005C41D60D5C4008005831DA0D00C
:20158000360F80A08400800134080001150200D8150140DD150080D9C41DE0D13A880B00B5
:2015A00004100821C51D20D0051EA0D5001D0201150380D8031EA0D04C008010260400104D
:2015C000051B20D0C407000504E07F0506060000831DA0D08407000144008010851DA0D035
:2015E0000012020106E53F00031BA0D0361780A00401C000051EE0D01704E0D03408000111
:20160000C41DE0D13A8885188302801004018001150200D8150100D8150000D83A880B00A7
:2016200004100821C51D60D5451E20D0851EA0D0001D0201150380D8031BA0D0851D20D040
:2016400044008010051BA0D006E73F00851D20D0C41D60D5C40080058400C0053408000183
:20166000150200D8150140DD1500C0DDC41DE0D1840080013A880B0004100821C51D20D023
:20168000051EA0D5001D0201150380D8031EA0D0C41D20D54C0080101E060010831DA0D09B
:2016A0008407000144008010851DA0D00012020106EA3F001722E0D0C43F80001E21801831
:2016C000851D20D044074005C4008005831DA0D0360F80A88400800134080001150200D8F1
:2016E000150100DD150080D9C41DE0D13A880B0004100821C51D20D0051EA0D5001D020163
:20170000150380D8031EA0D00C10801026070010831DE0D0840780001E0A80184323A0D0EE
:20172000440080104523A0D006060000831DA0D08407000144008010851DA0D0001202015A
:2017400006E23F001722A0D01521A0D04323E0D01705A0D0260200184401C00006383C00B2
:201760004400C00006363C008400C00006343C003A888B111700402935004021040180102A
:201780001EFBFF101712E0D0440080001EEABB184057000106E83B00CC3F00217AD004204E
:2017A0003A8809218C2A00214C1580103AB08820BAD004203A8809213A880921CC0C8010F5
:2017C0000C3300213AB088203AD104203A9108203AB004113A2800F8052520D13A2800F827
:2017E000440080000525A0D0CCFFFF39261400383AD4043004FBFFDEC50380D9450380D837
:201800003AD204301500C0D9150200D8850380D8C4008000050380D8170580D80403C0D953
:2018200004018001150180D81504C0DF001D02013A8805001704C0DF0405C0DE3A2800F85A
:201840003A8805003A2800F804F5FFDE150940DD150800DD1507C0DC150680DC150400DC38
:20186000150AC0DF150540DC3A8825203A88272844C4090484010005440140058403C0D913
:20188000440080013A880B983A880990150200D8150100D8150000D8850300DD001D020174
:2018A000040380D884004004150200D8150180D8150040DC8403C0D9440080013A880B9829
:2018C0003A880990C4FF3F84850340DD001D020126050080030380D8CC0080101EE77F1465
:2018E0003A8805000601000044008000170AC0DF170940DD170800DD1707C0DC170680DC2A
:20190000170540DC170400DC040BC0DE3A2800F804F2FFDE150C00DF440000071507C0DCBB
:20192000150DC0DF150BC0DD150A80DD150940DD150800DD150680DC150540DC150400DCD6
:20194000052520D7CCFFFF3C1E0200983A88050006410000CC3FC0391E3E00383A922030E6
:20196000170E00DD3AD226983A8825283A8823203A8839003AC82185840040054400800552
:20198000C400C005CCFFFF983A8805A4263100183AD406103AD20410C50300D84503C0D8BE
:2019A000850380D8170F80D8261000100725A0D00503C0DD1E0600103A880B903A8809885E
:2019C000808401013A883910CC3F801026DF3F1004408000150200D8150100DD150080D8F4
:2019E0000403C0D904018001061400003A880B903A880988050340DD808401013A883910C1
:201A0000CC3F80101E1300100403C0D904018001150280DD150100D8150000D83A880B9018
:201A20003A880988001D02013A880FA0150200D8150100D8150000D8044080013A880B90D6
:201A40003A880988001D0201044000A5C4FFFF9C06CC3F003A8805E0170DC0DF170C00DF4F
:201A6000170BC0DD170A80DD170940DD170800DD1707C0DC170680DC170540DC170400DC8E
:201A8000040EC0DE3A2800F804F5FFDE150500DC3A8821301508C0DC840180003A8827387E
:201AA000150200D8150100D8150000D80403C0D944008001CC3F0084150780DC150640DCB9
:201AC000150AC0DF150900DD3A8823203A882528050380D8001D0201260D0080040880007A
:201AE000150200D8150100D8150000D80403C0D9040180013A880B903A880988050380D8E6
:201B00004503C0DC850300D8C50300D8001D020144018000B40B0004050380D844B0318430
:201B20004400C004040400DD150200D8150100DD1500C0DC0403C0D9440080013A880B9063
:201B40003A880988C4FF3F84001D0201260500800304C0D84C00C0183A8805181EF23F18D8
:201B60000601000044008000170AC0DF170900DD1708C0DC170780DC170640DC170500DC77
:201B8000040BC0DE3A2800F8161B00203A880F00161600283A880D202E1A002904088000DC
:201BA0004400C00006010000260D00103A884B29C4FFBF103A88C71836FB3F293A8805000E
:201BC000260700183A880500360240313AC84D313AB0C4107AD006187AD00A281EFA3F18BF
:201BE000260100383AC885003A2800F83AC84B015C00C03906E73F003AC809014400C001C5
:201C000006E33F004400C00006EE3F00161700203A880F003A880520161200282E160029A3
:201C2000040880014400C00006010000260A00303A884B29C4FFBF313A88C71836FB3F2989
:201C4000260500187AD00618360140113AC845117AD00A281EFB3F18260100383AC8850027
:201C60003A2800F83AC84B0106EC3F003AC809014400C00106E73F004400C00006F13F0014
:201C80003A880D202E15002916140028040880004400C00006020000260E00101605002878
:201CA0003A884B29C4FFBF103A88C71836FA3F29260800183A880500360240313AC84D31ED
:201CC0003AB0C4107AD006187AD00A281EFA3F183A2800F83A8805003A2800F84400C00074
:201CE00006F43F003A8805202E12002916110028040880014400C00006020000260C003011
:201D0000160500283A884B29C4FFBF313A88C71836FA3F29260600187AD00618360140112A
:201D20003AC845117AD00A281EFB3F183A2800F83A2800F84400C00006F73F003A880500A4
:201D4000260700204C00C0207AD00820260100183A8845113A884B291EFA3F203A2800F83A
:201D60003A2800F804FDFFDE1502C0DF150140DC150000DCC403C0003A8805202E458019D8
:201D80003AB00629CC00C0181E44001804FC7F343AD122880401C028040140233A912088DC
:201DA0000402002B0402C022040500840403802A040340223A88212C3A8811283A880F2068
:201DC000170000411700C01F1700C06315000039170080531500C06F1500C05B1500804BEF
:201DE0000404C0180404C039040400420404406B040400630404C05A040480520404404A0C
:201E00001EEF3F1C4400C0893A910E38CC030031C400C0023A88C7113A88CB292E2100593E
:201E20003A8813183A8811283A880F20170080420401404A04FFFF3915FFBF4A04010042C2
:201E400036FAFF5904FF3F21BAD00820CC008031440000213A8809213A8809213A88071949
:201E60003A880B29260600303A888D190300C0294400C01844004029C5FFFF191EFBBF1926
:201E80001702C0DF170140DC170000DC0403C0DE3A2800F83A88072006F23F003A8807205B
:201EA00006F13F003A880D2006EE3F00CC00C0203A88052026440018C4FFFF31264000302C
:201EC0003A8813283A880D203A88072006040000C4FF3F3A44008031263900383A880F404A
:201EE0004400C01805004032CC00001A1EF83F40C40000012E2DC021CC3F00293A920C20A7
:201F00003AB008313A940C203AB08C21C40300012E18C02104FC3F3B3AD118600401001A02
:201F20000402C01A3A9108600403801A3A881318040500213A88091915008049150080413E
:201F40001500805915008051040400420404404A0404C05A040480521EF73F414400006399
:201F60003A911860CC03C039C40000013A88071B2E0EC0213A8813183A881138C4000001D3
:201F80001500804904FF3F420401404A36FC3F2204FF3F39BAD00820CC00C0394400002166
:201FA0003A8809213A8809213A880719260500383A88CF19050040194400C0181EFDFF388E
:201FC0003A2800F83A2800F83A8807203A880F3006C73F0004FCFFDE150300DF040300DF9D
:201FE00015FD3FE115FE7FE115FFBFE117FEFFE017FDBFE0260C80180608000017FEBFE055
:202000000401C01015FEFFE017FDFFE00401001915FD3FE11700C0181500C01017FEFFE0EE
:2020200017FFBFE01EF5BF183A8801003A8837E0170000DF0401C0DE3A2800F804FEFFDE93
:202040001501C0DF150000DF3A8839D83408800104D0813134084001040B40293404000193
:20206000047E0F2140FD0101340480010408803134044001040840293404000104080021A5
:2020800040FD010134088001040B803134084001040040293404000104730F2140FD01017B
:2020A000005A0301808403013A8801003A8837E01701C0DF170000DF0402C0DE3A2800F873
:2020C00004FDFFDE1502C0DF150100DF040100DF3A880900001502013A8801008018020152
:2020E000C06C03013404000104CB0D21009A03011726A0D01727E0D0172820D13A880D2022
:202100003A880B183A8809108065000115FFBFE044000001004A030117FF3FE1409B0301BE
:2021200004FDFFDE1502C0DF150100DF040100DF15FF3FE117FF3FE1C03003013A8837E0FB
:202140001701C0DF170000DF0402C0DE3A2800F804FDFFDE1502C0DF150100DF040100DF67
:2021600015FF3FE1C08E0301440080003A7001103A8801003A8837E01701C0DF170000DF11
:202180000402C0DE3A2800F804FEFFDE1501C0DF150000DF3A8839D83A8801003A88010060
:2021A0003A8801003A88010034080001040B002100C802013A8801003A8801003A8837E002
:2021C0001701C0DF170000DF0402C0DE3A2800F804F4FFDE150B00DF040B00DF15FC3FE161
:2021E00015FD7FE115FEBFE115FFFFE117FFFFE017FEBFE03A88851815F8BFE01702C0E059
:20220000170180E03A88851815F9BFE0170180E015F5BFE017FEBFE015F6BFE044008000F7
:2022200015F7BFE017FCBFE0040580103A8809104400C00017FDBFE03A98841835008020D3
:20224000170380E08C0080101E05001017FCBFE0040380103A880710040081003500801841
:2022600017FCBFE03700801017FCBFE0040280103700801015FABFE017FABFE00C108010CC
:202280002602001017F7BFE01E03001017FABFE00C20801026F43F1017FABFE00C108010F7
:2022A000261E001017F7BFE00E1C800017F7BFE0C4FFBF1015F7BFE017FFFFE017F8BFE0E6
:2022C0002E0A801817FCBFE0040180103A88091017FFBFE04400C01015FFFFE003008010BD
:2022E000CC3F801035008020060C000017F5BFE02608001017F5BFE0C4FFBF1015F5BFE08D
:2023000017FCBFE0040180103A8807003500C010060200000400BF0015F7BFE017FABFE082
:202320000C20801026D03F1017FCBFE03700801015FBBFE017F6BFE02604001017F6BFE0E2
:20234000C4FFBF1015F6BFE006050000170280E04400C0101502C0E017FBFFE00500C0102C
:2023600017F7BFE04400801015F7BFE017F6BFE01EBD3F101702C0E017F9BFE01EBABF1844
:2023800017FCBFE0040280103700801015FABFE017FABFE00C08801026F93F10170380E044
:2023A0004C0080101E04001017FCBFE0040380103A8807003500C010170180E03A8837E0A7
:2023C000170000DF0401C0DE3A2800F804FDFFDE1502C0DF150100DF040100DF15FF3FE169
:2023E000040E60D117FF3FE1806203013A8837E01701C0DF170000DF0402C0DE3A2800F8FA
:2024000004F7FFDE1508C0DF150700DF040700DF15FC3FE115FD7FE115FEBFE115FFFFE1F9
:2024200015F93FE017FCBFE015FABFE017FABFE0170B801017FDFFE00E06801817FDFFE01B
:2024400017FFBFE03A88851817FAFFE0170BC0180E02801884FCBF000617000017FABFE0CA
:20246000170AC01017FDBFE03A88851817FFFFE03A880D183A880B1017FE3FE140D6010153
:2024800017FABFE0172F8010260A001017FABFE0172F8010370080100C01801015FBBFE0DD
:2024A00017FBBFE0200180101E020010C4FEBF0015F9BFE017F9BFE03A8837E01701C0DF1D
:2024C000170000DF0402C0DE3A2800F804FAFFDE150500DF040500DF15FD3FE115FE7FE1A7
:2024E00015FFBFE115FB3FE017FDBFE015FCBFE017FFBFE02604001017FCBFE0170CC01002
:2025000017FFBFE01500C01017FCBFE0170C80101E03001004FDBF0015FBBFE0060D000009
:2025200017FCBFE0170C8010500280101E03001084FCBF0015FBBFE00606000017FEBFE075
:202540002604001017FCBFE0040DC01017FEBFE01500C01017FBBFE03A8837E0170000DF95
:202560000401C0DE3A2800F804F9FFDE1506C0DF150500DF040500DF15FE3FE115FF7FE142
:2025800015FB3FE017FEBFE015FCBFE017FCBFE0170B801017FFFFE01602801884FCBF0060
:2025A0000646000017FCBFE0172F80102603001017FCBFE0172E80102602001044FBBF0051
:2025C000063E000017FCBFE0173F8010C4FFFF1017FFBFE03A7084182602001084FABF00DD
:2025E0000636000017FC3FE1C015030115FBBFE017FBBFE02602001017FBBFE0062F000015
:2026000017FCBFE0172F80100401C01017FCBFE0172F801004018010370080102C003C1100
:2026200034208000C4FFBF103AB084203500801817FFBFE00E010010C4008010BAD0051012
:2026400015FDBFE017FCBFE0172F80100401801017FCFFE0172FC0180401C0183700C018B0
:202660002C003C1917FDFFE0341CC0183AB0C6203500C01017FC3FE1C015030115FBBFE02E
:2026800017FC3FE1C01E030115FBBFE017FCBFE0172F80100401C01017FCBFE0172F801091
:2026A000040180103700001134008400C4FFBF103AB084203500801817FBBFE03A8837E00E
:2026C0001701C0DF170000DF0402C0DE3A2800F804F2FFDE150DC0DF150C00DF040C00DFCC
:2026E00015FC3FE115FD7FE115FEBFE115FFFFE115F43FE017FCBFE015F8BFE015F53FE0E1
:2027000017FEBFE015F6BFE017F8BFE0170B801017FDFFE00E0A801817F8BFE0170B8010F8
:2027200017FEFFE00E06801817F8BFE0170BC01017FEBFE03AC88718170280E00E028018E3
:2027400084FCBF000693000017F8BFE0172F80102603001017F8BFE0172E80102602001029
:2027600044FBBF00068B000017F83FE1C015030115F4BFE017F4BFE02602001017F4BFE08E
:202780000684000017F8BFE0172F80100401C01017F8BFE0172F8010040180103700801076
:2027A0002C003C1134208000C4FFBF103AB084203500801806650000C4FFBF0015FBBFE043
:2027C00017F6BFE0CC0080101E1E001017F6BFE00401C01004FFBF003A70841815F7BFE071
:2027E00017F7FFE017F6BFE03AC885181702C0E00E0180183A88051815F9BFE017F5BFE00A
:2028000017FFFFE03A88871817F93FE104FBBFE03A880D203A880B183A88091040D60101CD
:2028200017F5FFE017F9BFE03A88851815F5BFE01702C0E017F9BFE03AC88518150280E078
:202840000630000017F6BFE0CC00801015FABFE017F6FFE017FABFE03AC8851815F6BFE0A7
:2028600017F6BFE00401C01004FFBF003A70841815F7BFE017F7FFE017F6BFE03AC88918E8
:202880001702C0E017FABFE03A8887183A8805200E0180183A88051815F9BFE004FBFFE076
:2028A00017FABFE03A8885183A880F1017F5BFE017FFFFE03A88891817F9FFE017FABFE086
:2028C0003AC885183A880D103A880B203A88093840D6010117F9FFE017FABFE03AC8851834
:2028E00017F5FFE03A88851815F5BFE017F9FFE017FABFE03AC885181702C0E03AC885184F
:20290000150280E017F8BFE0170AC01017F6BFE03A88851817FBFFE03500C01017F83FE171
:20292000C015030115F4BFE017F4BFE01E0A001017F83FE1C027030115F4BFE017F4BFE0C8
:202940001E07001017F7BFE015F6BFE0170280E01E993F10060300003A8801000601000099
:202960003A88010017F8BFE0172F80100401C01017F8BFE0172F80100401801037000011DA
:2029800034008400C4FFBF103AB084203500801817F4BFE03A8837E01701C0DF170000DF62
:2029A0000402C0DE3A2800F804F1FFDE150EC0DF150D00DF040D00DF15FC3FE115FD7FE1F1
:2029C00015FEBFE115FFFFE115F43FE017FFBFE015F8BFE017FDBFE015F9BFE017FCBFE0B5
:2029E00015FABFE017FABFE0170B801017FDFFE00E06801817FABFE0170BC01017FDBFE0D3
:202A00003AC8871817FFBFE00E02801884FCBF000696000015F53FE00687000017FAFFE037
:202A200017F5BFE03A9104103A888518040D80101700801017FDFFE0167C801817FAFFE058
:202A400017F5BFE03A9104103A888518040D80101700C01017FA3FE117F5BFE03A9104104A
:202A60003A888520040E8010170080103A88851817FDFFE00E6D801817FAFFE017F5BFE0A6
:202A80003A9104103A888518040D80101700801015F7BFE015F63FE0065C000017FDFFE086
:202AA00017F7BFE0164D801817FAFFE017F5BFE0040180103A9104103A8885181700C01019
:202AC00017F7BFE03A88851817FDFFE00E43801817FAFFE017F5BFE0040180103A910410FF
:202AE0003A8885181700C01017F7BFE03A88871817FDBFE03AC8851815FBBFE017FBFFE090
:202B000017FFBFE00E0180183A88051815FBBFE017FABFE0170AC01017FDBFE03A88851818
:202B200017FBFFE03A880D183A880B1017FE3FE1C09E03012613001017FABFE017088010A1
:202B400017FAFFE017F77FE13A8809183AE83E1015F4BFE017F4BFE01E0A001017FABFE08A
:202B60001709801017FA3FE117FBFFE01500C0D817FEFFE117FDBFE117F77FE13AE83E104F
:202B800015F4BFE017FFFFE017FBBFE0262E801817F4BFE01E2C001017FFFFE017FBBFE051
:202BA0003AC8851815FFBFE017FAFFE017F5BFE0040180103A9104103A8885181700C0106E
:202BC00017F7BFE03A88851815FDBFE017FBBFE017FEFFE03A88851815FEBFE017FAFFE092
:202BE00017F5BFE0040180103A9104103A8885181700801017F7FFE03A88851815F7BFE0B9
:202C000017F6BFE04400801015F6BFE017FAFFE017F5BFE03A9104103A888518040F80100E
:202C20001700801017F6FFE0169CBF1817F5BFE04400801015F5BFE017FABFE0170C8010ED
:202C400017F5FFE01675BF1817FABFE0170AC01017F9BFE03A88851817F8FFE03A880B18A5
:202C60003A8809108057030117F4BFE03A8837E01701C0DF170000DF0402C0DE3A2800F870
:202C800004F5FFDE150AC0DF150900DF150800DC040900DF15FE3FE115F83FE015F93FE032
:202CA00015FA3FE015FB3FE015FC3FE015F73FE017FEBFE0040D801015FDBFE017FEBFE0A2
:202CC000172F80102619001017FEBFE0172F8010370080100C08801015F8BFE017FEBFE07A
:202CE000172F8010370080100C10801015F9BFE017FEBFE0172F8010370080100C208010D1
:202D000015FABFE017FEBFE0172F8010370080100C40801015FBBFE017FEBFE0172F80109F
:202D2000370080100C80801015FCBFE017FEBFE017308010580080101E2F001017F8BFE082
:202D4000200880101E2C001017F7BFE03A91041017FDFFE03A88851817FEFFE01731C0186F
:202D60001500C01017F7BFE03A91041017FDFFE03A88851817FEFFE01732001917FEFFE046
:202D80001731C0183AC8C7204400C0181501C01017F7BFE03A91041017FDFFE03A88A1182E
:202DA00017FEFFE017F7BFE03A9104103A888518040E80101700C01017FEBFE0173F801011
:202DC0003A880B103A88091880B801011502808017F7BFE03A91041017FDFFE03A88851804
:202DE00017FEFFE0173FC0181503C01017F7BFE04400801015F7BFE017FEBFE0173380100F
:202E0000580080101E2F001017F9BFE0201080101E2C001017F7BFE03A91041017FDFFE025
:202E20003A88851817FEFFE01734C0181500C01017F7BFE03A91041017FDFFE03A88851859
:202E400017FEFFE01735001917FEFFE01734C0183AC8C7204400C0181501C01017F7BFE06A
:202E60003A91041017FDFFE03A88A11817FEFFE017F7BFE03A9104103A888518040E801084
:202E80001700C01017FEBFE0173F80103A880B103A88091880B801011502808017F7BFE0F3
:202EA0003A91041017FDFFE03A88851817FEFFE0173FC0181503C01017F7BFE04400801056
:202EC00015F7BFE017FEBFE017368010580080101E2F001017FABFE0202080101E2C001097
:202EE00017F7BFE03A91041017FDFFE03A88851817FEFFE01737C0181500C01017F7BFE048
:202F00003A91041017FDFFE03A88851817FEFFE01738001917FEFFE01737C0183AC8C72021
:202F20004400C0181501C01017F7BFE03A91041017FDFFE03A88A11817FEFFE017F7BFE0F4
:202F40003A9104103A888518040E80101700C01017FEBFE0173F80103A880B103A88091850
:202F600080B801011502808017F7BFE03A91041017FDFFE03A88851817FEFFE0173FC01800
:202F80001503C01017F7BFE04400801015F7BFE017FEBFE017398010580080101E2F001044
:202FA00017FBBFE0204080101E2C001017F7BFE03A91041017FDFFE03A88851817FEFFE044
:202FC000173AC0181500C01017F7BFE03A91041017FDFFE03A88851817FEFFE0173B0019A6
:202FE00017FEFFE0173AC0183AC8C7204400C0181501C01017F7BFE03A91041017FDFFE04A
:203000003A88A11817FEFFE017F7BFE03A9104103A888518040E80101700C01017FEBFE019
:20302000173F80103A880B103A88091880B801011502808017F7BFE03A91041017FDFFE01A
:203040003A88851817FEFFE0173FC0181503C01017F7BFE04400801015F7BFE017FEBFE027
:20306000173C8010580080101E2F001017FCBFE0208080101E2C001017F7BFE03A91041060
:2030800017FDFFE03A88851817FEFFE0173DC0181500C01017F7BFE03A91041017FDFFE05A
:2030A0003A88851817FEFFE0173E001917FEFFE0173DC0183AC8C7204400C0181501C01044
:2030C00017F7BFE03A91041017FDFFE03A88A11817FEFFE017F7BFE03A9104103A88851817
:2030E000040E80101700C01017FEBFE0173F80103A880B103A88091880B80101150280809C
:2031000017F7BFE03A91041017FDFFE03A88851817FEFFE0173FC0181503C01017F7BFE01A
:203120004400801015F7BFE017FEBFE017F7FFE0150CC01017FEBFE03A880910C03C0201F0
:203140003A88010004FFFFE61702C0DF170100DF170000DC0403C0DE3A2800F804FAFFDE48
:203160001505C0DF150400DF040400DF15FF3FE115FC3FE0F40280000498AB1015FEBFE0D4
:20318000F40280000498AB1015FDBFE0060C000044000001C030030117FEBFE02608001074
:2031A00017FDBFE0C4FFBF1015FDBFE017FDBFE01E03001004E3BF0015FCBFE006050000D4
:2031C00017FFBFE0172F801037008010CC0080101EEF3F1017FCBFE03A8837E01701C0DFA3
:2031E000170000DF0402C0DE3A2800F804FAFFDE1505C0DF150400DF040400DF15FF3FE134
:2032000015FC3FE0F40280000498AB1015FEBFE0F40280000498AB1015FDBFE0060C00006F
:2032200044000001C030030117FEBFE02608001017FDBFE0C4FFBF1015FDBFE017FDBFE0BA
:203240001E03001004E3BF0015FCBFE00605000017FFBFE0172F8010370080100C048010EA
:2032600026EF3F1017FCBFE03A8837E01701C0DF170000DF0402C0DE3A2800F804FAFFDED9
:203280001505C0DF150400DF040400DF15FF3FE115FC3FE0F40280000498AB1015FEBFE0B3
:2032A000F40280000498AB1015FDBFE0060C000044000001C030030117FEBFE02608001053
:2032C00017FDBFE0C4FFBF1015FDBFE017FDBFE01E03001004E3BF0015FCBFE006050000B3
:2032E00017FFBFE0172F8010370080100C02801026EF3F1017FCBFE03A8837E01701C0DF38
:20330000170000DF0402C0DE3A2800F804FAFFDE1505C0DF150400DF040400DF15FF3FE112
:203320004402800015FDBFE0F40340010490502917FD3FE1C0D301013A880B107475000141
:203340000400302100C801013A880B1034002001C4FF3F2100C801013A880B1017FF3FE11C
:2033600000C8010115FEBFE017FEBFE0262A001015FC3FE0061700003400A000C4FFBF100A
:20338000C4FFBF101EFE3F10F40340010490502917FD3FE1C0D301013A880B10747500015B
:2033A0000400302100C801013A880B1034002001C4FF3F2100C801013A88071017FFBFE041
:2033C0003AC8C51015FFBFE017FCBFE04400801015FCBFE017FCFFE017FEBFE016E6BF18B4
:2033E000F40340010490502917FD3FE1C0D301013A880B10747500010400302100C80101D9
:2034000017FF7FE13A880910C0D30101C4FFBF101EFE3F10060D0000F40340010490502971
:2034200017FD3FE1C0D301013A880B10747500010400302100C8010117FF7FE13A8809108C
:20344000C0D30101C4FFBF1016FEBF003A8805003A8837E01701C0DF170000DF0402C0DE81
:203460003A2800F804FEFFDE1501C0DF150000DF3A8839D8170DA0D026030010170DA0D036
:203480003AE83E10060100000429A0D03A8837E01701C0DF170000DF0402C0DE3A2800F894
:2034A00004FBFFDE1504C0DF150300DF040300DF15FF3FE117FFBFE016080010040340013C
:2034C00017FF3FE1C0D301013A88071034088000045580103A888518060100003A88050076
:2034E00015FDBFE017FDBFE02619001017FDBFE017008010170480102606001017FDBFE025
:20350000170080101704801017FD3FE13AE83E10060100003A88050015FEBFE017FF3FE1FF
:203520008086030117FEBFE00E070010404603013A88071017FEBFE03AC88500150080185D
:20354000C4FFBF00060700003A88050006050000404603013A880710441480001500801822
:20356000C4FFBF003A8837E01701C0DF170000DF0402C0DE3A2800F804FDFFDE150200DF71
:20358000040200DF15FE3FE115FF7FE13A8801003A8837E0170000DF0401C0DE3A2800F810
:2035A00004FFFFDE150000DF3A8839D83A8801003A8837E0170000DF0401C0DE3A2800F8D5
:2035C00004FCFFDE150300DF040300DF15FD3FE115FE7FE115FFBFE117FFBFE03A8837E04A
:2035E000170000DF0401C0DE3A2800F804FEFFDE1501C0DF150000DF3A8839D8170DA0D0E9
:2036000026030010170DA0D03AE83E10060100000429A0D03A8837E01701C0DF170000DF43
:203620000402C0DE3A2800F804FAFFDE1505C0DF150400DF040400DF15FE3FE115FF7FE172
:2036400017FEBFE02603001017FEBFE0170280101E060010C05E03013A88071084058000E8
:203660001500801884FABF000613000017FEBFE017FFFFE015FCFFE015FDBFE017FDBFE04A
:2036800017FCFFE01501C01017FCBFE01700C01017FDBFE01500C01017FCBFE017008010C8
:2036A00017FDFFE01501C01017FCBFE017FDFFE01500C0103A8805003A8837E01701C0DF50
:2036C000170000DF0402C0DE3A2800F804FDFFDE1502C0DF150100DF040100DF34048000D1
:2036E00004728F1015FFBFE00606000017FFBFE0170080103AE83E1017FFBFE004FFBF10A3
:2037000015FFBFE017FFFFE03404800004738F102EF6BF183A8801003A8837E01701C0DFE5
:20372000170000DF0402C0DE3A2800F804FDFFDE1502C0DF150100DF040100DF3404800070
:2037400004728F1015FFBFE00606000017FFBFE0170080103AE83E1017FFBFE004FFBF1042
:2037600015FFBFE017FFFFE03404800004738F102EF6BF183A8801003A8837E01701C0DF85
:20378000170000DF0402C0DE3A2800F804FCFFDE1503C0DF150200DF040200DF15FF3FE192
:2037A000040E60D117FF3FE10091030115FEBFE017FEBFE02609001017FEBFE017038010F8
:2037C0002606001017FEBFE01703801017FF7FE117FE3FE13AE83E100601000017FEBFE079
:2037E0003A8837E01701C0DF170000DF0402C0DE3A2800F804FDFFDE1502C0DF150100DFBC
:20380000040100DF15FF3FE117FFBFE02608001017FFBFE0170480102605001017FFBFE04D
:203820001704801017FF3FE13AE83E103A8801003A8801003A8837E01701C0DF170000DF2B
:203840000402C0DE3A2800F804FFFFDE150000DF3A8839D83A8801003A8837E0170000DF31
:203860000401C0DE3A2800F804FCFFDE1503C0DF150200DF150100DC040200DF15FE3FE1B7
:2038800017FEBFE0D00080101E110010340800040455008417FEBFE0040340013A880910E1
:2038A000C0D301013A8885800402801015000010340800040455008417FEBFE004034001D8
:2038C0003A880910C0D301013A888580150000103A88010004FFFFE61702C0DF170100DF32
:2038E000170000DC0403C0DE3A2800F804FFFFDE150000DF3A8839D8FA7001003A88010001
:203900003A8837E0170000DF0401C0DE3A2800F804FAFFDE1505C0DF150400DF040400DF68
:2039200015FE3FE115FF7FE117FFBFE01700801015FCBFE017FE3FE180A6030144008010A1
:2039400015FDBFE0060D000017FCBFE01702801017FDFFE03A880D1817FE7FE13A8809101E
:20396000C09E03011E02001017FCBFE00607000017FCBFE01700801015FCBFE017FCFFE0FB
:2039800017FFBFE01EF0BF183A8805003A8837E01701C0DF170000DF0402C0DE3A2800F842
:2039A0003A880B203A880F003A880D003A88090001B0030104FEFFDE3A880B00150000DC5D
:2039C0001501C0DF3A88212080C103013408800004CE811017000011170F802026010010A6
:2039E0003AE83E103A88098080D90301C400C0012E1980393AB044213A70C411260F001017
:203A0000030080200300C0281E15C01084FFBF31C4FFFF0106040000030080200300C02847
:203A2000C4FFBF311E0EC01044000021440040291EF9FF313A8805003A2800F81700C02066
:203A4000170080281EEEBF1804FFBF31040100210401402936F9BF391EE93F3006F53F0066
:203A60003AC8C5103A2800F8CC0080202620001007008020262000103A8805200602000067
:203A80000700C0102618001844008010CC00C0101EFB3F181700C010F4BFFF01C4BFFF39C4
:203AA0003A30CA007420A0013A88C7190420A0313A7046193A7086191E09001804018010E0
:203AC0001700C0103A88CB193A30C6003A70C6283A70861926F93F180601000044008010F7
:203AE0000700C0101EFD3F183AC805113A2800F83A88052006E73F003A8805003A2800F8D7
:203B000004FAFFDE150300DC3408000404CE01841700C080150440DC1505C0DF17528018F9
:203B20003A882320263700101701C010C4070001160EC0204400001A1E2200888400C018D9
:203B40003A88C7183A88C718150100123A88C710150040193A8805001705C0DF170440DC3B
:203B6000170300DC0406C0DE3A2800F834008000040080102626001004640001150040D912
:203B8000150180D91502C0D900000000170040D9170180D91702C0D9261D001017000081C8
:203BA0001501001044000002175240223A8807001500401215528020156200101563001088
:203BC00026DE3F883A88C9183A8809213A8809111522802144008001176240123A98CC3079
:203BE0003AB09249156240121542C021840000011ED23F89176300113AB08C211563801197
:203C000006CE3F00045380181552801806C63F00C4FFBF0006D03F0004F5FFDE150900DF2E
:203C2000150640DD150380DC150AC0DF1508C0DD150780DD150500DD1504C0DC150240DC08
:203C4000150100DC150000D93A88392844008004C4FF7F053408800004CE8110170000120A
:203C6000175200450452C044261C00A0170180A0C4FFFF15160D00B8440000143A882184B1
:203C80003A882184042040843A8863A43A8821A4261E00E017408080261C80E0C4FFFFBDE9
:203CA00004FF3F8404FF7F8C1EF97FBD340080000400801026090010170180A01E300010C0
:203CC000170080A0263200103A8809A015008098000000001700009D1EE43FA0170AC0DF58
:203CE000170900DF1708C0DD170780DD170640DD170500DD1704C0DC170380DC170240DCF9
:203D0000170100DC040BC0DE3A2800F8170180A01700C080C4FFBF102614C01515000080E3
:203D200026DE3F183A98C895176280A0170180A53A708420260B0010176380A03A708820A8
:203D40001E0C002017004089170000D93AE83E18170180A01EBFBF151700809826CF3F1570
:203D600006BC3F003AE83E1806F93F001501C0A506EB3F00170000893AE83E1806F43F0090
:203D8000170080A03A8827A03A88291006B63F003A88050006FB3F0004FDFFDE150200DF92
:203DA000040200DF15FF3FE13A88010017FFBFE015FEBFE017FEBFE02602001070F02A004A
:203DC00006010000B0F02A0006FF3F002F6465762F6F6E636869705F666C6173685F305F55
:203DE00064617461000000002F6465762F6E756C6C0000004300000000000000000000008E
:203E0000000020000000000000000000A829100000241000CC24100068251000D0261000CA
:203E20000000100000C00800000000000000000000000000000000000000000000000000AA
:203E4000000000000000000000000000000000000000000000000000000000000000000062
:203E6000000000000000000000000000000000000000000000000000000000000000000042
:203E8000000000000000000000000000000000000000000000000000000000000000000022
:203EA0000000000000000000000000000000000000000000F02020000100000000000000D1
:203EC000FF3F00000100000000400000FF7F00000100000000800000FFDF02000100000083
:203EE00000E00200FF9F04000100000000A00400FFBF080000100000200720002007200035
:203F00001C002000000000000000000000000000C035100000000000000000000000000060
:203F20002C01200000000000000000002C01200000000000000000002C012000000000009A
:203F4000000000000000000000000000000000000000000000000000000000000000000061
:203F6000000000000000000000000000000000000000000000000000000000000000000041
:203F8000000000000000000000000000000000000000000000000000000000000000000021
:203FA000000000000000000000000000000000000000000000000000000000000000000001
:203FC0000000000000000000000000000000000000000000000000000000000000000000E1
:203FE0000000000000000000000000000000000000000000000000000000000000000000C1
:204000000000000000000000000000000000000000000000000000000000000000000000A0
:20402000000000000000000000000000000000000000000000000000000000000000000080
:20404000000000000000000000000000000000000000000000000000000000000000000060
:20406000000000000000000000000000000000000000000000000000000000000000000040
:20408000000000000000000000000000000000000000000000000000000000000000000020
:2040A00000000000C005200028062000900620000000000000000000000000000000000017
:2040C000000000000000000000000000000000000000000028002000000000000000000098
:2040E0000000000000000000000000000000000000000000000000000000000000000000C0
:2041000000000000000000000000000000000000000000000000000000000000000000009F
:2041200000000000000000000000000000000000000000000000000000000000000000007F
:204140000000000001000000000000000E33CDAB34126DE6ECDE05000B0000000000000032
:2041600000000000000000000000000000000000000000000000000000000000000000003F
:2041800000000000000000000000000000000000000000000000000000000000000000001F
:2041A0000000000000000000000000000000000000000000000000000000000000000000FF
:2041C0000000000000000000000000000000000000000000000000000000000000000000DF
:2041E0000000000000000000000000000000000000000000000000000000000000000000BF
:2042000000000000000000000000000000000000000000000000000000000000000000009E
:2042200000000000000000000000000000000000000000000000000000000000000000007E
:2042400000000000000000000000000000000000000000000000000000000000000000005E
:2042600000000000000000000000000000000000000000000000000000000000000000003E
:2042800000000000000000000000000000000000000000000000000000000000000000001E
:2042A0000000000000000000000000000000000000000000000000000000000000000000FE
:2042C0000000000000000000000000000000000000000000000000000000000000000000DE
:2042E0000000000000000000000000000000000000000000000000000000000000000000BE
:2043000000000000000000000000000000000000000000000000000000000000000000009D
:2043200000000000000000000000000000000000000000000000000000000000000000007D
:2043400000000000000000000000000000000000000000000000000000000000000000005D
:2043600000000000000000000000000000000000000000000000000000000000000000003D
:2043800000000000000000000000000000000000000000000000000000000000000000001D
:2043A0000000000000000000000000000000000000000000000000000000000000000000FD
:2043C0000000000000000000000000000000000000000000000000000000000000000000DD
:2043E0000000000000000000000000000000000000000000000000000000000000000000BD
:2044000000000000000000000000000000000000000000000000000000000000000000009C
:2044200000000000000000000000000000000000000000000000000000000000000000007C
:2044400000000000000000000000000000000000000000000000000000000000000000005C
:2044600000000000000000000000000000000000000000000000000000000000000000003C
:2044800000000000000000000000000000000000000000000000000000000000000000001C
:2044A0000000000000000000000000000000000000000000000000000000000000000000FC
:2044C00000000000FFBF080000A00400E00720002C01FA77E0082000A007200010072000C7
:2044E0001007200018072000180720002C0120002C012000FFFFFFFF00000000300720001A
:2045000030072000D4022000D4022000000000000000000000000000000000000000000058
:2045200000000000000000000000000000000000000000000000000000000000000000007B
:2045400000000000000000000000000000000000000000000000000000000000000000005B
:2045600000000000000000000000000000000000000000000000000000000000000000003B
:2045800000000000000000000000000000000000000000000000000000000000000000001B
:0200000280007C
:00000001FF
